:400000000080002011000000B9070000B907000008B5044B1A6803F53F5302331A6000F0EBFB00BFFA46004010B5054C237833B9044B13B10448AFF300800123237010BD11
:400040009081FF1F000000004C410000084B10B51BB108490848AFF300800848036803B910BD074B002BFBD0BDE81040184700BF000000009481FF1F4C410000C880FF1F58
:400080000000000010B500F0C1FD044600F0CAFD201A014B188010BD2482FF1F08B5012000F060FC002000F05DFC00F0A9FD012000F0A4FE002000F0A1FE08BD08B54FF4CD
:4000C000806001F013F858B10B4B187800F0F4FBA72000F0EBFB4FF47A7000F0F3FB08BD054B187800F0E8FBF92000F0DFFB4FF47A7000F0E7FB08BDCC80FF1F08B5094B14
:40010000187800F0D9FBFF2000F0D0FB4FF4FA7000F0D8FB7F2000F0C9FB4FF4FA7000F0D1FB08BDCC80FF1F08B5002000F004FFC82000F0C7FB012000F0FEFE08BD00BF3B
:4001400008B5FFF7F1FF4FF4806000F0CFFFC0434FF48061C0B200F061FFFFF7AFFF08BD08B501F0EFFA04A3D3E9002301F03EFB01F04EFD08BD00BF51DA1B7C6132D93F35
:40018000092819D8DFE800F0170507090B0D0F111315F92310E0A4230EE0B0230CE099230AE0922308E0822306E0F82304E0802302E0902300E0C023184670472DE9F8432C
:4001C0000546894600277AE0DFF8208198F8040000F072FB3D4B83FB0523EE17C6EB233342F2107202FB1353394880FB0524C6EBA4144FF47A7202FB14541B1B80FB0320B2
:40020000DB17C3EBA010FFF7BBFF324B1860C0B200F04CFB012000F055FB98F8080000F04BFB2D4880FB0523C6EB6316642303FB1656A41B80FB0430E417C4EB6010FFF740
:400240009FFF264B1860B9F1010F01D180301860224B187800F02AFB012000F033FBDFF88C8098F80C0000F027FB1D4880FB0534EB17C3EBA40404EB84046300EC1A361BBF
:4002800080FB0630F617C6EBA000FFF779FF154B1860C0B200F00AFB012000F013FB98F8000000F009FB2046FFF76AFF0E4B1860C0B200F0FBFA012000F004FB0137F92F82
:4002C00082DD0F2000F0F8FABDE8F883AD8BDB68D34D6210C881FF1F1F85EB51C481FF1F676666662082FF1FD881FF1FCC80FF1F10B5184C207900F0DFFA002000F0D6FA12
:400300004FF47A7000F0DEFA207A00F0D5FA002000F0CCFA4FF47A7000F0D4FA207B00F0CBFA002000F0C2FA4FF47A7000F0CAFA207800F0C1FA002000F0B8FA4FF47A707F
:4003400000F0C0FA00212069FFF738FFFFF7B6FE10BD00BFCC80FF1F08B5FFF7E5FEFFF7C7FF08BD08B562B600F0D6FC1A4800F0C5FC00F071FD194800F060FD00F09AFD08
:40038000174800F089FD00F0C3FD164800F0B2FD00F034FE144800F023FE00F001FE134800F0F0FD00F004FC00F07AFC00F0B6FD00F006FB00F088FB00F0ECFB00F0A2FA45
:4003C00000F0C2FA00F0E0FC00F024FEFFF790FFFFF794FEFCE700BF85000000F103000059030000410100005D0400007904000038B5FFF799FEFFF751FE4FF4806000F0FD
:4004000075FE38B1114B1B8803EB03135B00104A13600CE00D4B188800EB0010400001F001FDFFF79DFE01F051FD094B1860084D01212868FFF7C2FE064C2A680649204635
:4004400002F01AFA204600F0B9FC38BD2482FF1FD481FF1FE081FF1F5041000008B5FFF763FE044B1869013018610021FFF7A6FE08BD00BFCC80FF1F08B5FFF755FE044BA3
:400480001869013818610021FFF798FE08BD00BFCC80FF1FFEE700BFF0B40022174611E050F82760F3B226F0FF0608E001EB420511F812406D78A5550132013BDBB2002BAB
:4004C000F4D10137202FEBD9F0BC704710B41F4B1B78DBB203F007011D4A11701B090132137048F240021B4B1A804FF4814210331A804023184A1370092102F22F72117097
:40050000012002F29712107001321370042213490A7007310A701021114C21700334207010480270104A11700F321370202101321170C0212432117022214232117016329D
:4005400013704422094B1A7010BC7047CF0100496E5800400C5100403D510040105A0040985A0040C85A0040CC5A00407658004008B50A46002101F006FD08BD38B5EF2210
:400580002D4B1A8018232D4A13704FF49C71023211800232137040F25721023211800232137047F22F52264B1A80192502331D70022203F272231A7008224FF040231A70AF
:4005C000032103F5007319701E4B1B78DBB21E490B701E4B1A8041F25122023B1A8000240CE01B4B1B7803F0010343EA440404F003044FF4F07000F08FFD013D0DB1032C3E
:40060000EFD115B90320FFF745FF124B4FF480721A8007221A7000220F490A704820023108701A700222033B1A700C4A137843F00F03137038BD00BF804000408240004014
:400640008C40004008010049A146004022420040254200400440004006400040A243004008B501F085FC08BD38B572B63C4A137843F00403137000240CE03A4D6300191978
:400680004A0011462A44084691882858FFF770FF0134E4B2072CF0D900240BE03149A3001819420088188022416B006BFFF7D8FF0134E4B2002CF1D02B494FF09040FFF722
:4006C000EBFE40F20312294B1A80294A137843F0020313701032137843F002031370254C237843F040032370A2F58632513A137843F01003137008221F492048FFF7B0FF99
:400700000A221F491F48FFF7ABFF08221E491F48FFF7A6FF0A221E491E48FFF7A1FF08221D491E48FFF79CFF0A221D491D48FFF797FF1D4A137843F0080313701B4D612353
:400740002B70FFF71BFF81232B700122184B1A70FFF7BCFE0E2221461648FFF781FF38BDE84600405C410000840000484A58004003500140A04300404006004802510040DE
:4007800048060048C051004054060048F25100405C0600481051004068060048225100407006004830510040224300400048004004000840B043004008B501F0ADFB03688D
:4007C0000C2B00D1FEE7FEE708B5094B1A681044084BC31AB3F5007F02DC054B186005E001F09AFB0C2303604FF0FF32104608BDE080FF1F3082FF1F08B5104E104D16E0FF
:4008000029686B68AC68002204E051F8040B43F8040B0432A242F8D1E868002203E0002143F8041B04328242F9D11035013E002EE6D101F077FBFFF795FDFEE701000000E7
:400840003043000008B5104A104B1A60104A136843F40073136000230AE0032B03D80D4A52F8231000E00C490C4A42F8231001332F2BF2D90A4B1A780A4B1A70074A0A4B80
:400880001A60FFF7F1FE08BD0004FA050CED00E014ED00E000000000B90700000080FF1FBC760040C080FF1F08ED00E0014B1870704700BF7D640040014B1870704700BF9F
:4008C0007665004010B5044605E0084B186800F023FCA4F50044B4F5004FF6D8034B586800FB04F000F018FC10BD00BFE480FF1F08B5034B1B7A00FB03F000F00DFC08BD09
:40090000E480FF1F054A137843F0040313701032137843F004031370704700BFA24300400A22014B1A7070478765004008B500F0FBFB044A137843F02003137000F0F8FB5C
:4009400008BD00BF9765004008B5054B1B7823B9FFF7E6FF0122024B1A70FFF7E7FF08BDAC81FF1F014B1870704700BF77640040084A137843F060031370A2F5A652133A43
:40098000137843F0020313701032137843F002031370704777580040054B1A7802F0FC021A701A7800F0030010431870704700BF5A58004008B50120FFF7EEFF08BD00BF3A
:4009C00008B5054B1B7823B90122034B1A70FFF7F1FFFFF7CDFF08BDAD81FF1F084A137843F0010313701032137843F00103137002F5A5521E32137843F0800313707047F0
:400A0000A9430040044A137803F0FC0300F0030018431070704700BF0158004010B487B00446194B03AA1868596803C2197A11706A4653F80C0F596803C21B7A1370082C8A
:400A40001ED812490B7803F08003DBB20B70087806AB1C4414F80C3C14F8182C920002F00C02134303430B70094A137803F0F3031370117814F8183C0B4343F00C03137000
:400A800007B010BC704700BF98410000025800400158004008B50C22084B1A70084A137843F0200313700022064B1A700220FFF7B5FF0320FFF7A6FF08BD00BF0058004010
:400AC000015800400258004008B5054B1B7823B9FFF7E0FF0122024B1A70FFF77FFF08BDAE81FF1F054A137843F0020313701032137843F002031370704700BFA743004035
:400B00000F490B7803F0FC0200F0030313430B7001280AD10B4B1B78DBB20B4A13700B4B1B78DBB2013213707047094B1B78DBB2054A1370074B1B78DBB2013213707047C8
:400B400041580040110100493246004015010049AF010049B701004908B50220FFF7D0FF0B4B1A7802F0DF021A701A7802F0FB021A701A7842F008021A7003F28E231A78AC
:400B800002F0E7021A701A7842F010021A7008BD4158004008B5054B1B7823B9FFF7DCFF0122024B1A70FFF79DFF08BDAF81FF1F054A137843F0010313701032137843F052
:400BC00001031370704700BFA2430040084A137843F0010313701032137843F00103137002F64D32137843F001031370704700BFA3430040014B1870704700BF034F004081
:400C0000014B1878704700BF034F0040014B188880B27047044F0040014B1880704700BF044F0040014B188880B27047084F0040014B1880704700BF064F004008B5154A04
:400C4000137803F0010313700232137803F0FC031370114B1A7802F0CF021A701A7842F030021A701A7802F0F0021A701A7842F00F021A70094A137843F001031370632006
:400C8000FFF7CAFF6320FFF7D3FF0420FFF7B2FF08BD00BF004F00400B4F0040014F004008B5054B1B7823B9FFF7C8FF0122024B1A70FFF78BFF08BDB081FF1F024B1B688B
:400CC000C3F88400704700BF08ED00E04001C0B2014B1870704700BF11E400E04FF40032014B1A60704700BF00E100E04FF40032014B1A60704700BF80E100E010B5044625
:400D0000FFF7F4FF2046FFF7D9FF0020FFF7DEFFFFF7E4FF10BD00BF4FF40032014B1A60704700BF80E200E07222084B1A70202201331A700622A3F25F131A704722103375
:400D40001A70002250331A70704700BF8565004010B500F0E9F904460A4A137843F0200313700132137843F010031370FF3A137843F01003137000F033F8204600F0D8F92B
:400D800010BD00BF9565004008B5054B1B7823B9FFF7CAFF0122024B1A70FFF7D9FF08BDB181FF1F034B1B7813F0040FFAD1024B18707047676400404C64004038B5074BCD
:400DC0001B782BB938BDFFF7EDFF0134A4B201E005460024285D0028F5D138BDB181FF1F054A137843F0020313701032137843F002031370704700BFA2430040014B187086
:400E0000704700BF76640040014B1B681864704708ED00E04001C0B2014B1870704700BF00E400E00122014B1A60704700E100E00122014B1A60704780E100E010B5044639
:400E4000FFF7F6FF2046FFF7DFFF0120FFF7E2FFFFF7E8FF10BD00BF0122014B1A60704780E200E0014B1B685864704708ED00E04001C0B2014B1870704700BF01E400E031
:400E80000222014B1A60704700E100E00222014B1A60704780E100E010B50446FFF7F6FF2046FFF7DFFF0220FFF7E2FFFFF7E8FF10BD00BF0222014B1A60704780E200E075
:400EC000014B1B689864704708ED00E04001C0B2014B1870704700BF02E400E00422014B1A60704700E100E00422014B1A60704780E100E010B50446FFF7F6FF2046FFF73A
:400F0000DFFF0320FFF7E2FFFFF7E8FF10BD00BF0422014B1A60704780E200E0054A137843F0080313701032137843F008031370704700BFA2430040044A137803F07F0379
:400F4000C001C0B218431070704700BF30510040014B1B681865704708ED00E04001C0B2014B1870704700BF04E400E01022014B1A60704700E100E01022014B1A60704770
:400F800080E100E010B50446FFF7F6FF2046FFF7DFFF0520FFF7E2FFFFF7E8FF10BD00BF1022014B1A60704780E200E0014B1B68D864704708ED00E04001C0B2014B187048
:400FC000704700BF03E400E00822014B1A60704700E100E00822014B1A60704780E100E010B50446FFF7F6FF2046FFF7DFFF0420FFF7E2FFFFF7E8FF10BD00BF0822014B56
:401000001A60704780E200E008B500F0EBF800F0F3F808BD08B5FFF7F7FF08BD30B583B00C468DF8070000F027F9B4F5006F52D22509A4EB0514A4B200F0CAF900284CD139
:4010400001230DF107022146402000F041F9044607282FD1234B1B7813F0020FFAD0214B1B7813F0020F06D01E4B1B789B0805D04FF0FF3403E04FF0FF3400E00024E4B937
:40108000194A537812782946402000F05DF9072816D1144B1B7813F0020FFAD0114B1B7813F0020F0FD00F4B1B789B0810D04FF0FF340DE0012809D10AE04FF0FF3407E086
:4010C0004FF0FF3404E04FF0FF3401E04FF0FF3400F0A4F902E0012400E00424204603B030BD00BF224700402882FF1F38B5044600F01AF8054600F0A9F804F1804000F544
:4011000000400478E4B200F0AFF8284600F010F8204638BD000000000230800803D000BF01380046FCD17047EFF3108072B6704780F31088704700BF10B500F09DF800F0AA
:4011400047F910BB012000F025F9072818D102210F4800F0A3F802280AD102E00120FFF7C7FB0C4B1B7813F0020FF7D0002409E0084B1B7813F0020FE9D04FF0FF3401E080
:401180004FF0FF3400F04AF900E00424204610BD2882FF1F2247004010B500F06DF800F017F9D0B900F056F90446072812D102E00120FFF79DFB0A4B1B7813F0020FF7D04C
:4011C000074B1B7813F0020F04D0054B1B789B0800D1002400F022F900E00424204610BD2247004008B5FFF7D7FF034610B9FFF7A3FF0346184608BD08B5FFF795FF0F4A79
:40120000137843F0080313701032137843F008031370C8220A4B1A700A4A137843F0100313701032137843F010031370064B1B7813F0200FFAD0FFF77BFF08BDA043004095
:4012400001470040AC43004000470040054A137843F001031370034B1B7813F0020FFAD0704700BF02470040024A137803F0FE03137070470247004008B5FFF755FF064AF9
:40128000137843F0080313701032137843F008031370FFF74DFF08BDA043004070B506460D4600240CE00120FFF722FB064B1B7813F0010FF7D0054B1B7833550134E4B22E
:4012C000AC42F3D3204670BD224700402047004030B43E2801D81F2B03D93F2827D90F2B27D8174C247814F0020F24D0154CB6252570D4252570012525700234247814F076
:40130000020F1AD10F4C2070C1F300202070C9B22170591EC9B22170002104E0545C094804700131C9B29942F8D3072006E0012004E0012002E0042000E0092030BC704721
:40134000224700402047004030B4104C247814F0020F15D00E4CB6252570D8252570052525700234247814F0020F0BD1084C2070080A2070C9B2217022702370072002E0A9
:40138000042000E0092030BC704700BF22470040204700400C4B1B7813F0020F0FD00B4BB6221A70E1221A700E221A7002331B7813F0020F05D1054B1870072070470420E6
:4013C00070470920704700BF224700402047004010B5FFF7A9FE0F4B1B78A3B901220D4B1A700D4B1B6813F0010F0ED00A4A136823F00103136000BF00BF00BF0122054BC2
:401400005A60002402E0042400E00024FFF790FE204610BDB481FF1F0400084008B5FFF783FE0A4B00221A705B68012B0AD1084A136843F00103136000BF00BF00BF002295
:40144000024B5A60FFF774FE08BD00BFB481FF1F04000840074B1B7813F0020F08D0064BB6221A70E0221A700D221A700720704704207047224700402047004081F0004156
:4014800002E000BF83F0004330B54FEA41044FEA430594EA050F08BF90EA020F1FBF54EA000C55EA020C7FEA645C7FEA655C00F0E2804FEA5454D4EB5555B8BF6D420CDD9A
:4014C0002C4480EA020281EA030382EA000083EA010180EA020281EA0303362D88BF30BD11F0004F4FEA01314FF4801C4CEA113102D0404261EB410113F0004F4FEA033397
:401500004CEA133302D0524263EB430394EA050F00F0A780A4F10104D5F1200E0DDB02FA0EFC22FA05F2801841F1000103FA0EF2801843FA05F359410EE0A5F120050EF126
:40154000200E012A03FA0EFC28BF4CF0020C43FA05F3C01851EBE37101F0004507D54FF0000EDCF1000C7EEB00006EEB0101B1F5801F1BD3B1F5001F0CD349085FEA3000A0
:401580004FEA3C0C04F101044FEA445212F5800F80F09A80BCF1004F08BF5FEA500C50F1000041EB045141EA050130BD5FEA4C0C404141EB010111F4801FA4F10104E9D131
:4015C00091F0000F04BF01460020B1FA81F308BF2033A3F10B03B3F120020CDA0C3208DD02F1140CC2F10C0201FA0CF021FA02F10CE002F11402D8BFC2F1200C01FA02F155
:4016000020FA0CFCDCBF41EA0C019040E41AA2BF01EB0451294330BD6FEA04041F3C1CDA0C340EDC04F11404C4F1200220FA04F001FA02F340EA030021FA04F345EA0301BC
:4016400030BDC4F10C04C4F1200220FA02F001FA04F340EA0300294630BD21FA04F0294630BD94F0000F83F4801306BF81F480110134013D4EE77FEA645C18BF7FEA655CB5
:4016800029D094EA050F08BF90EA020F05D054EA000C04BF1946104630BD91EA030F1EBF0021002030BD5FEA545C05D14000494128BF41F0004130BD14F580043CBF01F5D4
:4016C000801130BD01F0004545F0FE4141F470014FF0000030BD7FEA645C1ABF194610467FEA655C1CBF0B46024650EA013406BF52EA033591EA030F41F4002130BD00BF64
:4017000090F0000F04BF0021704730B54FF4806404F132044FF000054FF0000150E700BF90F0000F04BF0021704730B54FF4806404F1320410F0004548BF40424FF000015F
:401740003EE700BF42004FEAE2014FEA31014FEA02701FBF12F07F4393F07F4F81F06051704792F0000F14BF93F07F4F704730B54FF4607401F0004521F0004120E700BF8F
:4017800050EA010208BF704730B54FF000050AE050EA010208BF704730B511F0004502D5404261EB41014FF4806404F132045FEA915C3FF4DCAE4FF003025FEADC0C18BFFD
:4017C00003325FEADC0C18BF033202EBDC02C2F1200300FA03FC20FA02F001FA03FE40EA0E0021FA02F11444C1E600BF70B54FF0FF0C4CF4E06C1CEA11541DBF1CEA135521
:4018000094EA0C0F95EA0C0F00F0DEF82C4481EA030621EA4C5123EA4C5350EA013518BF52EA033541F4801143F4801338D0A0FB02CE4FF00005E1FB02E506F00042E0FB9F
:4018400003E54FF00006E1FB03569CF0000F18BF4EF0010EA4F1FF04B6F5007F64F5407404D25FEA4E0E6D4146EB060642EAC62141EA55514FEAC52040EA5E504FEACE2E03
:40188000B4F1FD0C88BFBCF5E06F1ED8BEF1004F08BF5FEA500E50F1000041EB045170BD06F0004646EA010140EA020081EA0301B4EB5C04C2BFD4EB0C0541EA045170BDDC
:4018C00041F480114FF0000E013C00F3AB8014F1360FDEBF002001F0004170BDC4F10004203C35DA0C341BDC04F11404C4F1200500FA05F320FA04F001FA05F240EA0200B4
:4019000001F0004221F0004110EBD37021FA04F642EB06015EEA430E08BF20EAD37070BDC4F10C04C4F1200500FA04F320FA05F001FA04F240EA020001F0004110EBD37095
:4019400041F100015EEA430E08BF20EAD37070BDC4F1200500FA05F24EEA020E20FA04F301FA05F243EA020321FA04F001F0004121FA04F220EA020000EBD3705EEA430EED
:4019800008BF20EAD37070BD94F0000F0FD101F00046400041EB010111F4801F08BF013CF7D041EA060195F0000F18BF704703F00046520043EB030313F4801F08BF013DA1
:4019C000F7D043EA0603704794EA0C0F0CEA135518BF95EA0C0F0CD050EA410618BF52EA4306D1D181EA030101F000414FF0000070BD50EA410606BF1046194652EA4306E3
:401A000019D094EA0C0F02D150EA013613D195EA0C0F05D152EA03361CBF104619460AD181EA030101F0004141F0FE4141F470014FF0000070BD41F0FE4141F4780170BD3E
:401A400070B54FF0FF0C4CF4E06C1CEA11541DBF1CEA135594EA0C0F95EA0C0F00F0A7F8A4EB050481EA030E52EA03354FEA013100F088804FEA03334FF0805545EA131331
:401A800043EA12634FEA022245EA111545EA10654FEA00260EF000419D4208BF964244F1FD0404F5407402D25B084FEA3202B61A65EB03055B084FEA32024FF480104FF47D
:401AC000002CB6EB020E75EB030E22BFB61A754640EA0C005B084FEA3202B6EB020E75EB030E22BFB61A754640EA5C005B084FEA3202B6EB020E75EB030E22BFB61A7546B4
:401B000040EA9C005B084FEA3202B6EB020E75EB030E22BFB61A754640EADC0055EA060E18D04FEA051545EA16754FEA06164FEAC30343EA52734FEAC2025FEA1C1CC0D1DE
:401B400011F4801F0BD141EA00014FF000004FF0004CB6E711F4801F04BF01430020B4F1FD0C88BFBCF5E06F3FF6AFAEB5EB030C04BFB6EB020C5FEA500C50F1000041EBCD
:401B8000045170BD0EF0004E4EEA113114EB5C04C2BFD4EB0C0541EA045170BD41F480114FF0000E013C90E645EA060E8DE60CEA135594EA0C0F08BF95EA0C0F3FF43BAF8F
:401BC00094EA0C0F0AD150EA01347FF434AF95EA0C0F7FF425AF104619462CE795EA0C0F06D152EA03353FF4FDAE1046194622E750EA410618BF52EA43067FF4C5AE50EA85
:401C000041047FF40DAF52EA43057FF4EBAE12E74FEA4102B2F1E04324BFB3F5001CDCF1FE5C0DD901F0004C4FEAC0024CEA5070B2F1004F40EB830008BF20F00100704754
:401C400011F0804F21D113F13872BCBF01F00040704741F480114FEA5252C2F11802C2F1200C10FA0CF320FA02F018BF40F001004FEAC1234FEAD32303FA0CFC40EA0C009E
:401C800023FA02F34FEA4303CCE77FEA625307D150EA01331EBF4FF0FE4040F44000704701F0004040F0FE4040F40000704700BF80F0004002E000BF81F0004142001FBF8B
:401CC0005FEA410392EA030F7FEA226C7FEA236C6AD04FEA1262D2EB1363C1BFD218414048404140B8BF5B42192B88BF704710F0004F40F4000020F07F4018BF404211F0CA
:401D0000004F41F4000121F07F4118BF494292EA030F3FD0A2F1010241FA03FC10EB0C00C3F1200301FA03F100F0004302D5494260EB4000B0F5000F13D3B0F1807F06D37E
:401D400040084FEA310102F10102FE2A51D2B1F1004F40EBC25008BF20F0010040EA03007047490040EB000010F4000FA2F10102EDD1B0FA80FCACF1080CB2EB0C0200FA2E
:401D80000CF0AABF00EBC25052421843BCBFD0401843704792F0000F81F4000106BF80F400000132013BB5E74FEA41037FEA226C18BF7FEA236C21D092EA030F04D092F0D2
:401DC000000F08BF0846704790EA010F1CBF0020704712F07F4F04D1400028BF40F00040704712F100723CBF00F50000704700F0004343F0FE4040F4000070477FEA226241
:401E000016BF08467FEA23630146420206BF5FEA412390EA010F40F4800070474FF0000304E000BF10F0004348BF40425FEA000C08BF704743F0964301464FF000001CE08C
:401E400050EA010208BF70474FF000030AE000BF50EA010208BF704711F0004302D5404261EB41015FEA010C02BF84460146002043F0B64308BFA3F18053A3F50003BCFAE3
:401E80008CF2083AA3EBC25310DB01FA02FC634400FA02FCC2F12002BCF1004F20FA02F243EB020008BF20F00100704702F1200201FA02FCC2F1200250EA4C0021FA02F226
:401EC00043EB020008BF20EADC7070474FEA4002B2F1FE4F0FD34FF09E03B3EB12620DD94FEA002343F0004310F0004F23FA02F018BF404270474FF00000704712F1610F10
:401F000001D1420205D110F0004008BF6FF0004070474FF000007047014B1868704700BF5481FF1F0E4B70B51E460E4C0025E41AA410A54204D056F8253098470135F8E7C8
:401F400002F0E4F9084B094C1E46E41AA4100025A54204D056F8253098470135F8E770BD1843000018430000184300002043000010B5431E0A44914204D011F8014B03F851
:401F8000014FF8E710BD03460244934202D003F8011BFAE770472DE9F04788B0149F002B1E461299B8BF03F1004327F02007B6BF1E4600232D23462F1446109DDDF84CA059
:401FC0000B7003D0452F03D1013501E0032300E0022307AA049206AA03928DE828042246334600F001FD472F804602D1119BDB0728D5462F08EB050911D198F80030302B00
:402000000AD1002200232046314602F02FF818B9C5F10105CAF80050DAF800309944002200232046314602F021F808B9302202E0CDF81C9006E0079B994503D9591C07912A
:402040001A70F8E74046079B159AC8EB0303136008B0BDE8F087034673B50029B8BF494203F8022BB4BF2D222B22092942701ADD0DF1070216460A2591FBF5F405FB141146
:40208000092C01F1300102F8011D2146F4DC3031541E02F8011CB4421A460AD214F8012B03F8012BF7E71A463024214402F8024B5970101A02B070BD2DE9F04F91B00C4606
:4020C000DDF8688016461F46054601F025FA03681846099300F0F4FB00230E93D8F800300A90073323F0070303F1080294F81890D4F800B0C8F80020D3E90023C4E91223BF
:40210000D4F84CA0D4F848802AF000430B934FF0FF32A74B40460B9901F0DAFFA0B94FF0FF32A34B40460B9901F0B4FF60B9002200234046514601F0A3FF10B12D2384F8E2
:4021400043309C4B9C4A0AE0424653464046514601F0BEFF002800F09281984B984AB9F1470F8CBF90469846032323612BF0040323604FF0000A3DE0B9F1670F00F08A818A
:40218000B9F1470F00F0868123600193636800210DF13302059002920093424653460691CDF81090CDF80CE02846FFF7F4FE09F0DF03472B804600F08481B9F1650F0D9946
:4021C00000F28D8101394A4604F150000D91FFF742FF0E9A82468318012A236100F37C812268D10700F178819DF8333013B12D2384F84330009733460FAA2146284600F07C
:402200009FF9013002D14FF0FF3096E123685A0501D4236965E0B9F1650F40F2D580D4E912010022002301F021FF78B30123654A31462846B8470130E5D00E9B0D9A9A42CE
:402240000BDB2368D80708D423689B0740F111814FF0000804F1190906E10A9B099A31462846B8470130CED04FF0000804F11A090E9B013B9845E7DA01234A463146284687
:40228000B8470130BFD008F10108F1E70D9B002B29DC01234B4A31462846B8470130B2D00D9B23B90E9B13B92368D907CCD50A9B099A31462846B8470130A4D04FF000093F
:4022C00004F11A0A0D9B5B42994509DA0123524631462846B847013095D009F10109F1E70E9B4246A7E00E9AA36D9A42A8BF1A46002A914606DC4FF0000A29EAE97904F104
:402300001A0B11E01346314642462846B8470130F1D178E701235A4631462846B84701303FF471AF0AF1010AA36DC9EB03029245F0DB08EB03090D9A0E9B9A420FDB236833
:40234000DA070CD40E9B0D9A9844C9EB08089B1A9845A8BF9846B8F1000F08DC0FE00A9B099A31462846B8470130EBD14BE743464A4631462846B84701303FF444AF4FF06C
:40238000000928EAE87804F11A0A09E00123524631462846B84701303FF435AF09F101090D9A0E9B9B1AC8EB03039945EEDB4BE7FFFFEF7FAF410000B3410000B7410000D5
:4023C000BB410000BF4100000E9A012A01DCDB0738D50123424631462846B84701303FF412AF0A9B099A31462846B84701303FF40AAFD4E912010022002301F037FE20B138
:402400004FF0000804F11A090EE00E9B08F10102013B19E001234A4631462846B84701303FF4F1AE08F101080E9B013B9845F1DB534604F1500231462846B84701307FF4E2
:4024400003AFE0E64246012331462846B8470130EED1D8E601234A4631462846B84701303FF4D1AE08F10108E3680F9A9B1A9845F0DBE0680F9B9842B8BF18465DE0626830
:402480000EA8531C0DF1340E4BF480637FF474AE062201E012B90122626075E6002106910DF133018DE80C00236005904246CDF81090CDF80CE0029153462846FFF76BFDD3
:4024C00080460D9BD81C02DB626893421DDDA9F102095FFA89F970E60133236184E6B9F1660F14D10029636807DD216113B92268D2071DD501330B4419E013B92268D007E4
:4025000001D5023313E0012311E04FF067090D9B0E9A934205DB22682361D10708D5013305E0002BD4BFC3F102030123134423610D9B4FF0000AA36556E611B0BDE8F08F68
:402540002DE9F04791461F460A698B6806469342B8BF1346C9F8003091F843200C46DDF8208012B10133C9F800302368990642BFD9F800300233C9F80030256815F0060500
:4025800010D104F1190A07E00123524639463046C04701301AD00135E368D9F800209B1A9D42F1DB94F843302268003318BF012392060FD5E118302081F843005A1C94F85C
:4025C00045102244023382F8431003E04FF0FF30BDE8F08704F1430239463046C0470130F4D02268D9F80050E36802F00602042A08BF5D1B2269A3680CBF25EAE57500253A
:402600009342C4BF9B1AED184FF000091A344D4509D00123224639463046C0470130D5D009F10109F3E70020BDE8F0872DE9F04317460A7E85B06E2A984606460C460C9BF1
:4026400001F1430E00F0AE8011D8632A22D009D8002A00F0BB80582A40F0CA8081F84520834955E0642A1ED0692A1CD0C0E0732A00F0B08009D86F2A2ED0702A40F0B880AE
:402680000A6842F020020A603EE0752A24D0782A3AD0ADE01A6801F14205111D1960136884F84230A8E021681A6811F0800F02D0111D196008E011F0400F02F104011960F0
:4026C00002D0B2F9003000E01368002B3CDA2D225B4284F8432037E021681A6811F0800F02D0111D196007E011F0400F02F10401196001D0138800E01368227E5C496F2A4E
:4027000014BF0A2208221BE078225A4984F845202268186812F0800F00F104051D6003D1550601D5038800E00368D00744BF42F0200222601BB9226822F020022260102274
:40274000002084F8430001E049490A226568002DA56008DB206820F0040020602BB9002D7DD175460CE0002B79D07546B3FBF2F002FB1033CB5C05F8013D03460028F5D13F
:40278000082A0BD12368DA0708D5236962689A42DEBF302305F8013C05F1FF35C5EB0E0323612EE008681A6810F0800F496903D0101D1860136808E010F0400F02F1040095
:4027C0001860136801D0198000E0196000232361754616E01A68111D1960156800216268284600F0A5FE08B1401B6060636804E004F1420584F8422001232361002384F855
:402800004330CDF800803B4603AA21463046FFF797FE013002D14FF0FF3026E023692A4639463046C0470130F5D023689B0710D5002504F1190907E001234A463946304606
:40284000C0470130E7D00135E368039A9B1A9D42F2DBE068039B9842B8BF184605E00B7804F1420584F842308AE705B0BDE8F083C1410000D24100000EB400B54FF4027143
:402880009CB0ADF814106FF00041049107914FF6FF711DAB02900690084853F8042BADF81610006802A9019301F038FA029B00221A701CB05DF804EB03B070475481FF1F7C
:4028C000034613F8012B002AFBD1181A013870472DE9F74F03690C6980469C427FDC013C01F114074FEA840E00F1140606EB0E0357F82450019356F824300135B3FBF5F51B
:4029000007EB0E09C5B34FF0000A3846B446D34650F8043B9AB205FB02A21B0C4FEA124A05FB03A392B2C2EB0B0BBCF800204FEA134A5A441FFA83FBDCF800308145CBEB3D
:40294000134303EB224392B242EA03424FEA234B4CF8042BDCD256F80E306BB9019B043B9E421A4602D3C8F8104005E01268043B002AF8D1013CF3E7404600F0F4FF002848
:402980002BDB304601354FF0000E57F8042B036891B2C1EB0E0E120C99B27144C2EB134303EB214389B24FEA234EB94541EA034340F8043BE9D256F8242006EB840362B906
:4029C000043B9E421A4602D3C8F8104005E01268043B002AF8D1013CF3E7284600E0002003B0BDE8F08F00002DE9F04F456A95B08246219CCDE9022345B9102000F090FD32
:402A0000CAF82400456085600560C560DAF82430196859B15A68012393404A608B60504600F0C9FDDAF8243000221A60039BA04A002BBDBF01232360039B0023BCBF23F06A
:402A400000430393DDF80C80A8BF236028F000431B0D1B0593421DD142F20F73209A1360029B43B9934A944BC8F31300002814BF1846104600E09048229B002B00F04685BC
:402A8000C37813B100F1080300E0C31C229A136000F03CBDDDE90245002200232046294601F0E4FA074658B1209A01231360229B002B00F01E8581481860013800F026BDDF
:402AC00012AB019313AB009322462B46504600F0C5FFC8F30A56049056B1C5F3130343F07F51204641F44011A6F2FF3611971DE0139B129E1E4406F23243202B0ADD029A31
:402B000006F21240C3F1400322FA00F008FA03F3184304E0C3F12000029B03FA00F0FEF7EFFD0123A1F1F871013E11930022644BFEF7A8FC58A3D3E90023FEF757FE58A347
:402B4000D3E90023FEF7A0FC044630460D46FEF7E7FD55A3D3E90023FEF748FE02460B4620462946FEF790FC04460D4601F0C6FA0022834600232046294601F081FA58B152
:402B80005846FEF7CDFD02460B462046294601F06DFA08B90BF1FF3BBBF1160F0DD8DDE90223484901EBCB01D1E9000101F086FA30B10BF1FF3B002300E00123109300E024
:402BC0001090129B9E1B731E079343BFC3F10008002307934FF00008BBF1000F06DB079BCDF82CB05B440793002705E00023CBEB0808CBF100070B931E9B092B28D8052B57
:402C0000C4BF043B1E931E9BC8BF0025A3F10203D8BF0125032B20D8DFE803F0060E0204012302E0012308E000230A931F9B002B1DDD9946059321E000230A931F9B0BEBD3
:402C4000030909F10103012B0593B8BF012315E0012500231E930A9501E001230A934FF0FF390022CDF8149012231F9206E04FF001094B46CDF81490CDF87C90DAF82440A3
:402C800000226260042101F114029A421CD86268490001326260F6E761436F63A787D23FB3C8608B288AC63FFB799F501344D33F0000F07FE3410000EC410000C0410000EF
:402CC0000000F83FF84100006168504600F03EFCDAF8243020601B680693059B0E2B00F25B81002D00F05881DDE90234BBF1000FCDE90E3430DD9F4A0BF00F034FEA2B1551
:402D000002EBC303E80618CBCDE908340CD5DDE90E01994B05F00F05D3E90823FEF790FE0324CDE9020100E00224934E6DB1E90708D5DDE90801D6E90023FEF757FDCDE9AE
:402D4000080101346D100836F0E7DDE90823DDE90201FEF775FE20E0CBF1000505B3DDE90E01844B05F00F0203EBC203D3E90023FEF73CFDCDE902017F4E2D110023022471
:402D800055B1EA0705D5D6E90023FEF72FFD013401236D100836F3E71BB1CDE9020100E00224109BE3B1DDE902560022734B2846314601F065F998B1059B8BB1B9F1000F77
:402DC00040F3E6800BF1FF330893314600226C4B2846FEF70BFD0134CDE902014E4602E0059ECDF820B02046FEF79AFCDDE90223FEF7FCFC634B0022FEF746FBA1F15073F6
:402E000004460C931D46D6B9DDE9020100225E4BFEF738FB22460C9BCDE9020101F04EF9002840F03F820C99224601F10043DDE9020101F025F9002840F02B82A8E00A9A97
:402E40004C4B711E002A49D003EBC103D3E9002300204E49FEF7F4FD22462B46FEF712FBCDE90C01069CDDE9020101F047F90546FEF756FC02460B46DDE90201FEF702FB9B
:402E8000DDE90C23303504F8015BCDE9020101F0F7F8002840F01D83DDE9022300203749FEF7F0FADDE90C2301F0EAF8002840F0D180069BE31AB3426ADADDE90C01002228
:402EC0002F4BFEF793FC0022CDE90C01DDE902012B4BFEF78BFCCDE90201C4E703EBC1012246D1E900012B46FEF780FC069BCDE90C011D469C19DDE9020101F0FFF80646A2
:402F0000FEF70EFC02460B46DDE90201FEF7BAFA303605F8016BAC42CDE902014FF0000222D11A4BDDE90C01FEF7AEFA02460B46DDE9020101F0C2F8002840F08B80DDE9D2
:402F40000C2300201149FEF79DFA02460B46DDE9020101F095F8D8B114F8013C621E302B40F0B7821446F7E7054BFEF73FFCCDE90201C0E7F8410000D04200000000F03F94
:402F80000000244000001C40000014400000E03FDDE90E34CDE90234139B002B7CDBBBF10E0F79DCAB4B03EBCB03D3E900671F9B002B14DA059B002B11DC40F06C810022FD
:402FC000A54B30463946FEF711FCDDE9022301F06BF8059D2E46002840F05F8165E1069CDDE9028932463B4640464946FEF728FD01F084F80546FEF793FB32463B46FEF7D3
:40300000F5FB0B46024649464046FEF73BFA05F1300E069B04F801EBC3EB040E059B73452DD102460B46FEF72FFA8046894602460B463046394601F023F878B942464B46C5
:403040003046394601F012F8002800F04482EB0704D440E2DDF820B000E01C4614F8012C631E392A07D1069A9A42F6D1069930220BF1010B0A701A7801321A702BE2002286
:40308000764BFEF7B3FB002200238046894600F0EDFF0028A6D01EE20A9A002A2BD01E9A012A0ADC119A12B103F2334302E0129BC3F136033D46444613E0059B5D1EAF4265
:4030C000BFBF0B9BEA1B9B180B93059BB6BF2F467D1B0025002BA7BF4446059BC3EB08040023079A01211A4450469844079200F001FB064602E03D4644460A9E5CB1079BCD
:40310000002B08DDA342A8BF2346079AC3EB0808E41AD31A0793002F1DDD0A9BABB18DB131462A46504600F07FFB049A01460646504600F0E8FA04990890504600F03BFA0E
:40314000089B04937A1B06D000E03A460499504600F06AFB04900121504600F0CBFA0B9B05465BB31A460146504600F05DFB1E9B0546012B18DC029B83B9039BC3F31303D6
:4031800073B9039B23F000473F0D3F054FB1079B08F1010801330793012702E0002700E0029F0B9B73B100E000272B6905EB8303186900F052FAC0F1200004E01E9B012B05
:4031C000D9DD0B9F0120079B184410F01F0008D0C0F12003042B02DDC0F11C0002E006D018461C30079B8044034404440793B8F1000F05DD42460499504600F063FB049082
:40320000079B002B05DD29461A46504600F05AFB0546109B23B32946049800F0A4FB00281EDA00230A220499504600F0DBF90A9B0BF1FF3B0490002B00F05F813146002365
:403240000A22504600F0CEF9B9F1000F06463FDC3BE000BFF84100000000144000002440059B002B2BDC1E9B022B28DDDDF81490B9F1000F11D129464B460522504600F06C
:40328000B1F901460546049800F06DFB00280CDC03E0354600E000252E461F9B069C6FEA030B09E03546DDF820B0069B069A5C1C312313700BF1010B05960026F7E00A9B56
:4032C000DDF8149023B9069CB2E01E9B022BCFDC002C05DD31462246504600F0F3FA06469FB17168504600F031F90446326906F10C01023292000C30FEF73AFE012221468D
:40330000504600F0DFFA059000E00596029B069F03F00103079329460498FFF7D9FA3146044600F13008049800F01DFB059A02902946504600F033FBC36802463BB90146E7
:403340000A90049800F00FFB0A9A034600E00123114650460A9300F02EF90A9B53B91E9A42B9079A32B9B8F1390F2AD0029B002B1CDC1DE0029A002A04DB1BD11E9ACAB927
:40338000079ABAB9002B13DD01220499504600F099FA2946049000F0E6FA002803DC07D118F0010F04D0B8F1390F0AD004F131087C1C0CE0002B07F101040BDDB8F1390FE9
:4033C00003D139233B70013756E008F1010887F800806CE0069B2746E31A4B4504F8018C3BD000230A220499504600F0FBF8059B04909E424FF00A024FF0000331465046F5
:4034000004D100F0EFF80646059084E700F0EAF8002306460A220599504600F0E3F8059079E700230A220499504600F0DBF8049029460498FFF74CFA069B00F1300804F84D
:40344000018BE31A4B45ECDB069B0596B9F1010FACBF4B4401331F46002601220499504600F030FA2946049000F07DFA002803DC15D118F0010F12D03C4614F8013C621EB1
:40348000392B09D1069B934204D10BF1010B3123069A02E01446F0E70133137007E03C4614F8013C621E302B01D11446F8E72946504600F080F8059B6BB12EB19E4203D06A
:4034C0003146504600F077F80599504600F073F801E0DDF820B00499504600F06CF80023209A23700BF101031360229B1BB11C6001E008480AE0069808E0B9F1000F3FF74C
:40350000E2AE1E9B022B7FF7DEAEB1E615B0BDE8F08F00BFBF410000004870475881FF1F024B0146186800F041BB00BF5481FF1F10B5C9B202449042034605D01C780130F1
:403540008C42F8D1184610BD002010BD70B5456A04460E463DB91020FFF7E2FF6062456085600560C560656AEB6843B1636ADB6853F8260078B1026843F8262017E0212272
:403580000421204600F0B8FA636AE860DB68002BECD1002070BD012101FA06F56A1D9200204600F0A9FA0028F3D04660856000230361C36070BD70B5446A06460D463CB973
:4035C0001020FFF7ADFF7062446084600460C4603DB1736A6A68DB6853F82210296043F8225070BD2DE9F04106460C460D691F4601F1140E0023DEF80000013381B202FB26
:403600000171000C0F0C02FB007089B201EB00419D424FEA10474EF8041BECDCD7B1A3689D4212DB616830460131FFF78FFF8046226904F10C01023292000C30FEF798FC4E
:4036400021463046FFF7B7FF444604EB850301355F6125612046BDE8F081030C1B0413B90004102300E0002310F07F4F04BF0002083310F0704F04BF0001043310F0404F7D
:4036800004BF80000233002803DB420003D5581C70471846704720207047036813F007020BD0D90722D49A074BBF5B089B08036003604CBF01200220704799B209B91B0C63
:4036C000102213F0FF0F04BF1B0A0832190704BF1B090432990704BF9B080232D90702D45B0805D00132036010467047002070472020704710B50C460121FFF727FF012217
:403700004461026110BD2DE9F74F14460A69236988469A42BEBF0B46A0461C46D8F81070D4F81090D8F80830D8F8041007EB09069E42C8BF0131FFF709FF00F114052B4684
:4037400005EB860C0022634502D243F8042BFAE704F1140208F1140102EB890301EB87070093009B0192934257D9B2F800B0BBF1000F23D08946AE464FF0000859F8044B5A
:40378000BEF800A0A3B20BFB03A34FEA144ADEF8004043444FEA14480BFB0A84F24604EB13449BB243EA04434F454FEA14484AF8043B01D9D646E1E7CEF80480019B043292
:4037C000B3F802A0BAF1000F21D02C4689462B684FF00008B9F800E0B4F802B09BB20AFB0EBEA346F04443EA08434BF8043B59F8043BB4F804E01B0C0AFB03E34F4503EBDE
:4038000018434FEA134801D95C46E3E763600435A7E75CF8043D13B9013E002EF9DC066103B0BDE8F08F00002DE9F843154612F0030206460F4607D0214C013A002354F8A6
:403840002220FFF7CFFE0746AD1036D0746A3CB91020FFF765FE7062446084600460C460D6F82480D8F808404CB940F271213046FFF740FF04460023C8F8080003604FF020
:403880000008EB070AD5394622463046FFF73BFF814639463046FFF78EFE4F466D100CD0206808B10446ECE7224621463046FFF72AFF2060C0F80080F4E73846BDE8F88383
:4038C000C04200002DE9F0470C460746914626694FEA621A56444968A368751CAB4202DA01315B00FAE73846FFF730FE002380461A4600F11401534503DA41F8232001338B
:40390000F9E72AEAEA73206901EB830319F01F0904F1140101EB800E14D0C9F1200C002208689A4600FA09F0024343F8042B51F8042B8E4522FA0CF2F2D8CAF8042042B1A0
:40394000B51C06E0043B51F8042B8E4543F8042FF9D8013D3846C8F810502146FFF72BFE4046BDE8F08703690A6910B59B1A11D192001430143183180A4453F8044D52F89E
:40398000041D8C4202D007D3012010BD9842F4D3002010BD184610BD4FF0FF3010BD2DE9F8430C460746114620461546FFF7DBFF061E08D131463846FFF7C8FD012303617D
:4039C0004661BDE8F883BCBF23462C4638466168BABF1D4601260026FFF7B8FD2B69C660266905F1140904F1140101EB860709EB830800F114054FF0000C51F8042B59F813
:403A0000044B93B29C44A3B2240CC3EB0C03C4EB124202EB23429BB24FEA224CC84543EA02428E4645F8042BE7D8BE450ED25EF8041B8AB26244131403EB114392B242EAF7
:403A400003424FEA234C45F8042BEEE755F8043D0BB9013EFAE70661BDE8F8832DE9F3411C4601219046089E099DFFF76FFDC4F31302C4F30A5407460CB142F48012019287
:403A8000B8F1000F19D002A840F8088DFFF705FE009B48B1019AC0F1200102FA01F10B43C2407B61019200E07B61019B002B14BF02210121BB61396107E001A8FFF7EDFD86
:403AC000019B01217B613961203034B1A4F2334404443460C0F1350009E0A0F2324007EB810330601869FFF7B8FDC0EB41102860384602B0BDE8F08138B502FB01F421465F
:403B000000F054F8054618B122460021FEF73BFA284638BD38B50546002944D051F8043C0C1F002BB8BFE41800F017FA1E4A1368114613B96360146030E0A3420DD92268B5
:403B4000A018834201BF18685B681218226063600C6023E0A24203D813465A68002AF9D118681918A1420BD12168014458188242196013D110685268014419605A600DE0B3
:403B800002D90C232B6009E021686018824201BF106852680918216062605C602846BDE8384000F0DBB938BDC081FF1F70B5CD1C25F0030508350C2D38BF0C25002D06460B
:403BC00001DBA94202D90C23336046E000F0C5F9234B1C681A462146A1B10B685B1B0ED40B2B03D90B60CC18CD501EE08C420BBF63684B681360636018BF0C4615E00C467F
:403C00004968E9E7174C23681BB9304600F07AF920602946304600F075F9431C18D0C41C24F00304A0420DD12560304600F096F904F10B00231D20F00700C31A0ED05A427B
:403C4000E25070BD211A304600F05CF90130EBD10C233360304600F081F9002070BD00BFC081FF1FBC81FF1F2DE9F0478E6882469E420C46914698463ED88A8912F4906F7A
:403C80003AD02568096902236F1A656905EB450595FBF3F57B1C43449D4238BF1D4653050FD52946FFF782FF064698B13A462169FEF75EF9A38923F4906343F08003A38159
:403CC00013E02A4600F04BF9064670B921695046FFF720FF0C23CAF80030A3894FF0FF3043F04003A381BDE8F08726613E44266046466561ED1BA560464528BF4646494697
:403D00003246206800F00EF9A36800209B1BA36023681E442660BDE8F08700002DE9F04F9DB003938B8980461C060D4616460DD50B695BB94021FFF739FF2860286118B95B
:403D40000C23C8F80030CDE040236B610023099320238DF82930DFF89CB130238DF82A3037463C4614F8013B1BB9B7EB060910D003E0252BF9D02746F3E74B4632462946AB
:403D80004046FFF771FF013000F0A780099B4B4409933B78002B00F0A08000234FF0FF3204930793059206938DF853301A930126052221784E48FFF7BBFB671C049B38B135
:403DC0004B4A3C46801A06FA00F018430490EFE7D90644BF20228DF853201A0744BF2B228DF8532022782A2A03D0079A00210A200BE0039A111D12680391002A10DA5242BF
:403E000043F00200079204900BE027463B780134303B092B03D800FB02320121F5E701B107923B782E2B1ED17B782A2B0AD1039B02371A1D1B680392002BB8BF4FF0FF3397
:403E4000059310E0002319460593781C0A2407463A780130303A092A03D804FB01210123F5E703B10591032239782248FFF760FB40B14023CBEB000003FA00F0049B01376C
:403E800018430490397806221B487E1C8DF82810FFF74EFB88B1194B33B9039B073323F007030833039314E003AB00932A46144B04A94046FEF700F907E003AB00932A4635
:403EC0000F4B04A94046FEF7B1FBB0F1FF3F824603D0099B5344099342E7AB895B0601D4099801E04FF0FF301DB0BDE8F08F00BFF8420000FE42000002430000B920000078
:403F0000693C000038B5064C0023054608462360FCF75AFC431C02D1236803B12B6038BD2C82FF1F884210B501EB020301D8421E0BE09842FBD28118D21AD34204D013F894
:403F4000014D01F8014DF8E710BD994204D011F8014B02F8014FF8E710BD70477047F8B5074615460E4621B91146BDE8F840FFF71DBE1AB9FFF7CEFD2846F8BD00F015F85C
:403F800085420ED929463846FFF710FE044650B131462A46FDF7ECFF31463846FFF7BAFD01E03046F8BD2046F8BD51F8040C0028BEBF091851F8043CC01804387047000015
:403FC0004FF0FF3C06E000BF4FF0010C02E000BF4FF0010C4DF804CD4FEA410C7FEA6C5C4FEA430C18BF7FEA6C5C1BD001B050EA410C0CBF52EA430C91EA030F02BF90EACB
:40400000020F0020704710F1000F91EA030F58BF994208BF90422CBFD8176FEAE37040F0010070474FEA410C7FEA6C5C02D150EA013C07D14FEA430C7FEA6C5CD6D152EA8D
:40404000033CD3D05DF8040B704700BF8446104662468C461946634600E000BF01B5FFF7B7FF002848BF10F1000F01BD4DF808EDFFF7F4FF0CBF012000205DF808FB00BF9E
:404080004DF808EDFFF7EAFF34BF012000205DF808FB00BF4DF808EDFFF7E0FF94BF012000205DF808FB00BF4DF808EDFFF7CEFF94BF012000205DF808FB00BF4DF808ED00
:4040C000FFF7C4FF34BF012000205DF808FB00BF4FEA410C7FEA6C5C02D150EA013C0AD14FEA430C7FEA6C5C02D152EA033C02D14FF0000070474FF0010070474FEA41029D
:4041000012F5001215D211D56FF47873B3EB625212D94FEAC12343F0004343EA505311F0004F23FA02F018BF404270474FF00000704750EA013005D111F0004008BF6FF09E
:40414000004070474FF00000704700BF00000000206469737420256420200A00004F00400C0040510040300000000140001000140140800000150140000700400140000A22
:40418000004C0140000200500140200080140140C0050048800000000111213141615363730000000809010105070704044300494E4600696E66004E414E006E616E003059
:4041C0000030313233343536373839414243444546003031323334353637383961626364656600496E66696E697479004E614E00504F534958002E00000000000000F03F84
:40420000000000000000244000000000000059400000000000408F40000000000088C34000000000006AF8400000000080842E4100000000D01263410000000084D7974119
:404240000000000065CDCD41000000205FA00242000000E876483742000000A2941A6D42000040E59C30A2420000901EC4BCD64200003426F56B0C430080E03779C3414302
:4042800000A0D8855734764300C84E676DC1AB43003D9160E458E143408CB5781DAF154450EFE2D6E41A4B4492D54D06CFF08044F64AE1C7022DB544B49DD9794378EA441B
:4042C00005000000190000007D000000000000000080E03779C34143176E05B5B5B89346F5F93FE9034F384D321D30F94877825A3CBF737FDD4F1575232D302B2000686C05
:404300004C0065666745464700000000F8B500BFF8BC08BC9E4670474D00000045080000F8B500BFF8BC08BC9E4670472900000040430000C880FF1FC8000000A00000001B
:4043400000000000070000000E0000000D0000000B000000870000003082FF1F0000E02EC05D00001800000000366E010000000000000000000000000000000000000000D1
:40438000000000000000000000000000AD4100000000000000000000000000000000000000000000000000000000000000000000000000000000000000000000000000000F
:4043C000000000000000000000000000F480FF1FF6410000FD420000FD420000FD420000FD420000FD420000FD420000FD420000FD420000FD420000FFFFFFFFFFFFFFFFC5
:40440000FFFFFFFFFFFF0000000000000000000000000000000000000000000000000000000000000000000000000000000000000000000000000000000000000000000082
:40444000000000000000000000000000000000000000000000000000000000000000000000000000000000000000000000000000000000000000000000000000000000003C
:4044800000000000000000000000000000000000000000000000000000000000000000000000000000000000000000000000000000000000000000000000000000000000FC
:4044C00000000000000000000000000000000000000000000000000000000000000000000000000000000000000000000000000000000000000000000000000000000000BC
:40450000000000000000000000000000000000000000000000000000000000000000000000000000000000000000000000000000000000000000000000000000000000007B
:020000040003F7
:0200000480007A
:40000000014F004009520040026400400465004002010140030301400705014050060140430701400E090140150B01402F0C01402E0D0140030F014009140140481501404C
:40004000411601404617014004190140011B01400B4001400A4101400F4201401043014014450140084601400A4701400E4801400E490140094C0140084D014005500140A5
:40008000035101400AB4002A0106103A1193190161806440782079207DFF870F760F85728638877FE280E6058C808F10EE019B10A080A110B510E042E402EA040402072A57
:4000C00009060B680D011106130814011506173819541A011B281F502401274029012D0131013203331E357038083B28580459045B045C115F0186048730880C89048B3897
:400100008C028F01920295049718980899309B0C9D02A101A40CA720A801AB0CB002B101B201B302B40CB53CB822BB20BE15BF05C002C504C9FFCA07CBFFCC40CD20CEF02F
:40014000CF05D008D401D804D904DA04DB04DC10DD11DF01E040E1A8E240E320011402110304061009200B400C800D280E021128170418041A801B081E101F04212022266F
:40018000250D2604270429052A112C2A316836253780388039103B483C803D14400448204904521058815A085B106401654069406F028240860189208A028B088F06994019
:4001C0009B10A080A110A420AD40B420C027C26AC426CA77CCFECE7ED004D60FE201E640EE0889808D029D809E049F20A502A608AE80B080B701E020E201E4B0EC1084403A
:4002000087108C0897219C889D809E049F20A280A440A502A608A808A904AE01B002B480B508E040E809EE10000C021108090A100C1C0E020F0216031C10201427012810B4
:400240002A0C321F330137024062410445E0460B47C0482649FF4AFF4BFF4EF04F44500C580459045A045C315D015F0166C06A406B02920196049E02B204B402B601D80445
:40028000DB04DC03DF0105800684088A0D080F011510164018101A081B801D08250427022F103C804502468047204D104E885641680869846A017086712081608504880287
:4002C0008C048E01941096089F02A780A810C0D0C2ADC450CA40CE10D0A0D220E005E402E64083828A04E2801E01220136013B083E40580459045C105F01042005020721C8
:400300000A020B020C080E480F0210801480171819401D801E401F1423202409262027402C602D102E803502362037483E2A3F804581468847284C804E01570158405A40E0
:400340005F1067306C0A6E046F1074207623809483408440860489108E84902093029401970899029B099C409D409EA9A101A46AA6A0A840B704C0F0C2F1C478CAF0CCF0AD
:40038000CEF0D0F0D210D620EE10020103230407053F0806090C0A010C040D081103140115331606170C1802190C1B331D012102240625042807290F2B303007332C350FB1
:4003C000371039823B283F015418580459045B045C115D105F018001820689028C07910195029B029C049E019F02A002A201A807AB02B007B102B301BF05D602D728D80497
:40040000D904DB04DC01DD20DE08DF0100800102046005200681071008400C200E2010081280162819021F01201021012420261227092A102C602D2030803129350236A0C9
:40044000371839103C403D023E28408041015C016010654067086D086E816F047101794082028A408D049150948096019A109C809D01A080A129A44AAA10AB80AE10B504DB
:40048000C0F9C261C46ACAE4CCFFCEF4D680D832DE08E220E640E803AA04AF20B608EC40E2C030023240350836203910810882408910CCF0CE10E6A05308550256405B105E
:4004C0005E02A402AA20D4E0D6A0EE801B043F0887118D109E409F10A502A601A708A802C610CE80E040E440EA2062027010820386408C1097209D109E409F11A502A60148
:40050000A708D840DC20E290E68013015310564059045B205F806208658066018180832087108A088D04C408D407D607D803E008E4019301A640AB80AE40B240B601EA04F2
:40054000EC02830189408B4093019C02A640B002E004E404EA042780660482048B088F1097209D109F11A202A502A708C880D880E280030105100B20520297209D109F017C
:40058000A202AB80B502C0C0C210D480E88008020E807D8093409C02A140A640C20CDE04128073408A808E809340C408DC01E203000A0A020E0A10061A0600FF0103040CF5
:4005C0000010020001DF000001180000001C20C110C00C0018C70018081C14C200002004018000000108000018440020000000C318202000011F06C0000000200000540087
:400600003402050001C000E022FFFFFF62A0F0410C000000000002110404040411110001000000000000400200103010001010120000000000000000000000000000000076
:40064000002F2F002F00C00080004080800080000000000000202000200000003000003B0B000000C000000000FFFF00FF0000009C00009D00000100000000000000000020
:40068000000000000000000000000000000000000000000000000000000000000000000000000000000000000000000000000000000000000000000000000000000000003A
:4006C00000000000000000000000000000000000000000000000000000000000000000000000000000000000000000000000000000000000000000000000000000000000FA
:4007000000000000000000000000000000000000000000000000000000000000000000000000000000000000000000000000000000000000000000000000000000000000B9
:400740000000000000000000000000000000000000000000000000000000000000000000000000000000000000000000000000000000000000000000000000000000000079
:0200000490006A
:0400000000004005B7
:0200000490105A
:04000000BC90ACAF55
:0200000490303A
:02000000315A73
:0200000490402A
:4000000000000000000000000000000000000000000000000000000000000000000000000000000000000000000000000000000000000000000000000000000000000000C0
:400040000000000000000000000000000000000000000000000000000000000000000000000000000000000000000000000000000000000000000000000000000000000080
:400080000000000000000000000000000000000000000000000000000000000000000000000000000000000000000000000000000000000000000000000000000000000040
:4000C0000000000000000000000000000000000000000000000000000000000000000000000000000000000000000000000000000000000000000000000000000000000000
:0200000490501A
:0C00000000012E16106900012E3241C3D1
:00000001FF